:020000040800F2
:10000000900E0020B50100083F400008CD3C0008DC
:100010003D40000885170008C54A000800000000A0
:1000200000000000000000000000000099430008EC
:10003000AF1900080000000033430008C94500085C
:10004000CF010008CF010008CF010008CF01000850
:10005000CF010008CF010008CF010008CF01000840
:10006000CF010008CF010008CF010008CF01000830
:10007000CF010008CF0100086D19000879190008A8
:10008000CF010008CF010008CF010008CF01000810
:10009000CF010008CF010008CF010008CF01000800
:1000A000CF010008CF010008CF010008CF010008F0
:1000B000CF010008CF010008CF010008CF010008E0
:1000C000CF010008CF010008CF010008CF010008D0
:1000D000CF010008614A0008B94A0008CF010008B2
:1000E00095220008CF010008CF01000800F002F8B7
:1000F00000F050F80AA090E8000C82448344AAF172
:100100000107DA4501D100F045F8AFF2090EBAE86F
:100110000F0013F0010F18BFFB1A43F0010318473B
:10012000A86C0000C86C0000103A24BF78C878C1E1
:10013000FAD8520724BF30C830C144BF04680C60ED
:10014000704700000023002400250026103A28BF35
:1001500078C1FBD8520728BF30C148BF0B60704739
:10016000662905F08C80642900F0B480752900F0C0
:10017000B180732900F08385002070471FB500F01F
:1001800087FD04000020002104F07AFEE0601FBD1E
:1001900010B510BD00F079FE1146FFF7EFFF04F037
:1001A000BDFC00F097FE03B4FFF7F2FF03BC00F0C4
:1001B0009BFE00000948804709480047FEE7FEE72C
:1001C000FEE7FEE7FEE7FEE7FEE7FEE7FEE7FEE707
:1001D00004480549054A064B70470000454600089B
:1001E000ED00000890080020900E0020900A0020EA
:1001F000900A0020B2F120030AD5C2F1200320FAB0
:1002000002F001FA03F321FA02F140EA0300704719
:1002100021FA03F04FF00001704700000FB41CB545
:10022000084B06AA7B4469460090059800F0F5FC4F
:1002300004460020694600F003FD20461CBC5DF822
:1002400014FB0000190A00000FB47CB50C0009AAC9
:10025000009001D02044401E084B7B446946019029
:10026000089800F0DAFC05461CB10020694600F051
:10027000E7FC28467CBC5DF814FB0000ED0900009B
:1002800070B50C460546012A05D02878800600D5B1
:10029000EA69002302E0012305E05B1C934202D2DD
:1002A000E05C0028F9D1A869E618C01AA861286A9C
:1002B000184428622846AFF3008004E0D5E9012104
:1002C00014F8010B9047B442F8D32846AFF30080EE
:1002D00070BD00002DE9F041064600241068752924
:1002E000314616A510D0AFF30080002802DA404254
:1002F00013A507E031688A0701D512A502E0490776
:1003000004D511A5012401E0AFF3008000210A22E9
:1003100006F1240709E0B0FBF2FCB0FBF2F302FBAC
:100320001C00303078541846491C0028F3D123466D
:100330002A463046BDE8F04100F001BA0000000056
:100340002D0000002B000000200000002DE9F05FD0
:10035000894604464FF0000ADFF874B1FB44C0F848
:1003600020A02046E1688847002874D0252806D0C0
:10037000D4E901219047206A401C2062F1E7002661
:100380005F462046E16888472028054607DB312D77
:1003900005D2781910F8200C08B10643F1E7B00730
:1003A00001D526F00406C4F81CA00027C4F818A044
:1003B0002A2D09D0284604F0AAFB38B304EB87089D
:1003C000303DC8F8185019E059F8041B204604EBDA
:1003D00087029161E1688847012F054618D1E069DD
:1003E000002820DA26F020061DE0D8F8180000EBDF
:1003F000800005EB40003038C8F818002046E1685E
:100400008847054604F083FB0028EED1012F0AD06F
:100410002E2D08D12046E16888477F1C0546022F13
:1004200046F02006C4DBA069002803DA404246F00B
:100430000106A061F00701D026F010066C2D0BD04C
:10044000682D09D04C2D39D06A2D35D0742D35D07A
:100450007A2D33D016E038E0E1682F4620468847F1
:10046000B842054609D16C2F26D04FF48060E16870
:10047000064320468847054604E06C2F1AD04FF407
:10048000807006430DB3A5F14100192802D820352C
:1004900046F400664A462946204626604E46FFF747
:1004A0005FFE80B101280BD0F61D26F0070000F199
:1004B000080956E74020E4E78020D8E70020D6E787
:1004C00006F104094DE7284652E7206ABDE8F09F8F
:1004D0004669000030B505460B462A4613F8014B25
:1004E00012F8010B08B1A042F8D01CB1002802D0CC
:1004F0006D1CF1E7284630BD10B5431C02E010F832
:10050000011B71B18107FAD14FF0013202C88C1A78
:100510008C4314EAC211F9D0C01A0A0603D0C01ED7
:1005200010BDC01A10BD0A0401D0801E10BD090202
:10053000FCD0401E10BD032A40F2308010F0030CA6
:1005400000F0158011F8013BBCF1020F624498BF26
:1005500011F801CB00F8013B38BF11F8013BA2F1C3
:10056000040298BF00F801CB38BF00F8013B11F03E
:10057000030300F02580083AC0F0088051F8043BDE
:10058000083A51F804CBA0E80810F5E7121D5CBF4B
:1005900051F8043B40F8043BAFF30080D20724BF7E
:1005A00011F8013B11F801CB48BF11F8012B24BF12
:1005B00000F8013B00F801CB48BF00F8012B704761
:1005C00010B5203AC0F00B80B1E81850203AA0E8EE
:1005D0001850B1E81850A0E81850BFF4F5AF5FEA22
:1005E000027C24BFB1E81850A0E8185044BF18C9D5
:1005F00018C0BDE810405FEA827C24BF51F8043B7C
:1006000040F8043B08BF7047D20728BF31F8023BCF
:1006100048BF11F8012B28BF20F8023B48BF00F863
:10062000012B70474FF000020429C0F0128010F037
:10063000030C00F01B80CCF1040CBCF1020F18BFBE
:1006400000F8012BA8BF20F8022BA1EB0C0100F051
:100650000DB85FEAC17C24BF00F8012B00F8012B24
:1006600048BF00F8012B70474FF0000200B5134659
:1006700094469646203922BFA0E80C50A0E80C50C2
:10068000B1F12001BFF4F7AF090728BFA0E80C5073
:1006900048BF0CC05DF804EB890028BF40F8042B6C
:1006A00008BF704748BF20F8022B11F0804F18BFD9
:1006B00000F8012B704700004FF0013C50F8042B6C
:1006C00051F8043B9A4221D1A2EB0C03934313EA65
:1006D000CC1317D150F8042B51F8043B9A4215D192
:1006E000A2EB0C03934313EACC130BD150F8042B69
:1006F00051F8043B9A4209D1A2EB0C03934313EA4D
:10070000CC13DBD04FF00000704700BFD01A01BA05
:10071000B1FA81F101F0180122FA01F0CB40C1F1E8
:100720002001DBB2C0B2C01A2CFA01F3D11A9143F6
:1007300011EAC311E6D170477047704770472DE941
:10074000F0470D4699469246044600F12408016898
:10075000880604D5E06921F01001216000E0012045
:10076000A84201DD471B00E00027A1697A1902EBCE
:100770000900081AA0612078C00602D42046AFF311
:100780000080002608E0D4E901211AF8060090470D
:10079000206A401C761C20624E45F4DB2078C0069F
:1007A0000AD52046AFF3008006E0D4E901213020CD
:1007B0009047206A401C2062381EA7F10107F4DC34
:1007C00007E0D4E9012118F805009047206A401C91
:1007D0002062281EA5F10105F3DC2046AFF300805E
:1007E0002078000602D50220BDE8F0870120FBE753
:1007F00070472DE9FF4F0C461E464FF0FF378BB078
:10080000D2E90001DDF860800A908A46C1F30A55FA
:1008100005B93D46002108464FF00000BAF1000F2F
:1008200000F4400005DA00EB80004FF4400101EADB
:1008300050004FEA9059B9F1010F00DDB9460A980E
:1008400050EA4A000ED044F61050A5F2FF35454359
:100850002F14B8F1000F1ED07542291E1EDDC9F1FC
:1008600000021CE0B8F1010F4FF0000001D0302170
:1008700003E0F24305E02154401CB042FBDB30466C
:100880000022002121540B99C1F80880C1E9002001
:100890000FB0BDE8F08FBD1B6D1CDEE74A4600DAE5
:1008A000694206A800F07EFA06AB93E8070003ABA6
:1008B00083E8070050460A9900F01CFB8DE807000A
:1008C000A0F500501F3800900398002D0ADD42F279
:1008D0001F014A460844002303A90390684600F01C
:1008E00085FD09E0A0F500504A461F38002303A902
:1008F0000390684600F08FFD8DE807000004000CAF
:1009000003D04FF0FF30410800E01046B8F1000F6F
:1009100003D00022009215461EE0751E05D400F09B
:10092000BBF9303262556D1EF9D5B346012208433A
:1009300002D000227F1C04E02078302801D1002260
:100940007F1E002A099784D01DE0112D07DA00F0E0
:10095000A3F9303262556D1C50EA0102F5D108430B
:1009600002D00098C8B10EE00021681E05E0235CAB
:10097000625C63542254401E491C8142F7DBAB4643
:10098000A81B401E0990002004F80B000B98099A40
:10099000C0F80880C0E9002B7AE711264FF0000864
:1009A00057E72DE9F04F88460446D21D22F0070193
:1009B00091B0D1E90001CDE90A0104F084F80246C2
:1009C0000B98C00F01D02D2007E02068810701D5CA
:1009D0002B2002E0202101EAC000032A099001D067
:1009E000072A05DB03464146204600F09BF90BE150
:1009F0002078800601D5E06900E00620B8F1650F97
:100A0000814606D0B8F1660F18D0B8F1670F70D1E3
:100A100031E00020B9F1110F009001DB112301E05A
:100A200009F101030AAA01A90CA8FFF7E2FEDDE91A
:100A30000C70002609F10105834647E001204B4672
:100A400000904FF000470AAA01A90CA8FFF7D1FEB9
:100A5000DDE90DB00C995D46002610B909F10100E1
:100A60000D18B9EB050003D4C0F1FF3609F10105FB
:100A7000A5EB09002BE0B9F1010F01DA4FF00109F4
:100A80000020B9F1110F0090484601DD112300E06C
:100A900003460AAA01A90CA8FFF7ABFEDDE90C701A
:100AA0004D4600268346207800070AD4AB4500DA7D
:100AB0005D4601A8012D04DD411911F8011C302902
:100AC00007D04F4502DA17F1040F04DA01208246FD
:100AD0000FE06D1EEEE7002F02DCED1B3E4403E04D
:100AE000781CA84200DD7D1CB81B00F1010A4FF004
:100AF00000472078000703D4AA4501DB4FF0FF3AF6
:100B00000021B7F1004F0DF143088DF8431024D0B8
:100B100002202B23002F01DA7F422D230A21021EFF
:100B2000A0F1010000DC5FB197FBF1FC97FBF1F253
:100B300001FB1C7C17460CF1300C08F801CDEEE7E8
:100B4000A8F1010003702188090501D5452100E0C5
:100B50006521A0F1010800F8011C09980FA9A1EB7B
:100B60000807FF1D00B10120411901EBEA70A169DE
:100B70003844081A401EA0612078C00602D42046DE
:100B8000AFF30080099828B1D4E901219047206A89
:100B9000401C20622078C00622D52046AFF300809A
:100BA0001EE0002E04DBB34502DD01A8805D00E0FD
:100BB0003020D4E901219047206A401C2062761C35
:100BC000AAF101005FEA000A0AD100F061F8C068EA
:100BD0000168405CD4E901219047206A401C2062F2
:100BE000281EA5F10105DCDC07E0D4E9012118F895
:100BF000010B9047206A401C2062381EA7F10107B4
:100C0000F3DC2046AFF30080032011B041E6000082
:100C100001694A1C02610878704700B58FB0CDE9C0
:100C200001310021059105497944CDE903101146B0
:100C30006846FFF78BFB0FB000BD0000E5FFFFFF2C
:100C40000A6802F8010B0A607047D1E900239A4252
:100C500002D2531C0B601070704710B5436913B17A
:100C6000AFF3008001E0FFF70BFB012010BD12780D
:100C700000F124010A7000224A700122EDE7116898
:100C80004FF0FF32E9E700000048704730080020CD
:100C9000004870475008002030B5B0F10A024FEA12
:100CA000900E71F100034EEA817EB0EB0E0061EB15
:100CB00091014FEA101E4EEA017E10EB0E0041EB4F
:100CC00011114FEA102E4EEA016E10EB0E0041EBAF
:100CD00011214FEA104E4EEA014E10EB0E0041EB8F
:100CE0001141401841F100014FEAD00040EA417043
:100CF0004FEAD10110EB80054FEA810444EA907479
:100D000044EB01046D1944EB0404521BA3414FF062
:100D1000000348BF0A3200D530BD401C41F100013C
:100D200030BD00002DE9F0411F460446032601684E
:100D3000072A01F4006004DB08B116A505E016A53A
:100D400003E008B115A500E015A521F01000206012
:100D5000A069C01EA0610FB1401EA0612046AFF384
:100D600000804FB1D4E9012138469047206A401CE9
:100D70002062C01C206206E0206AFAE7D4E9012163
:100D800015F8010B9047761EF8D22046AFF300808D
:100D9000BDE8F0814E414E006E616E00494E460046
:100DA000696E66002DE9F047814616468AB03548DF
:100DB00078440DC88DE80D0032487844801C03AC9F
:100DC0000DC884E80D0041F69B300844372190FBA4
:100DD000F1F290FBF1F5A5F1800501FB12041B3C3B
:100DE00002D56442012000E00020DFF898A0804690
:100DF0000027FA44AAF1BE0A0EE0E0070AD0324604
:100E0000684607EB470101230AEB810100F003FB71
:100E10008DE8070064107F1C002CEED1194F7F4431
:100E2000AE3F19E0E80715D007EB04100DF1180AE2
:100E300090E80E008AE80E00C068F04201D19819CF
:100E400008903246012306A903A800F0E4FA03AB98
:100E500083E807006D10641C002DE3D14FF00103FF
:100E600032466946B8F1000F03A802D000F0BEFA7E
:100E700001E000F0D0FAC9E90001C9F808200AB081
:100E8000BDE8F087805F000070477546FFF7FCFE05
:100E9000AE4605006946534620F00700854618B067
:100EA00020B5FFF795F9BDE820404FF000064FF060
:100EB00000074FF000084FF0000B21F00701AC468F
:100EC000ACE8C009ACE8C009ACE8C009ACE8C009AE
:100ED0008D46704710B50446AFF300802046BDE84C
:100EE0001040FFF760B9000001491820ABBEFEE7D3
:100EF000260002005FEA400C08BF91F0000F4FEAA5
:100F00008C234FEAC12243EA51514FEA1C5018BFCB
:100F100000F5F0404FEA300018BF41F000415FEAB1
:100F20006C5C00F02980BCF1FF3F08BF40F08040BE
:100F30007047130C06BF12044FF0100C4FF0000C5A
:100F4000130E04BF12020CF1080C130F04BF1201A0
:100F50000CF1040C930F04BF92000CF1020CD30FA0
:100F600004BF52000CF1010C11464FF00002A0F139
:100F70001F00A0EB0C00704711F0004F08BF704736
:100F800031F000413FF4D5AF0B0C06BF09044FF020
:100F9000100C4FF0000C0B0E04BF09020CF1080CF2
:100FA0000B0F04BF09010CF1040C8B0F04BF890067
:100FB0000CF1020CCB0F04BF49000CF1010CCCF179
:100FC0002003A0EB0C0022FA03F302FA0CF241EA30
:100FD000030100F10100704720F07F4C80EA03001C
:100FE00023F07F47ACEB070303F57C5300F0004090
:100FF00003F1FF032DE980494FEA154B09B44FEA8D
:10100000144325EA0B4E24EA03480FF2042606EBAC
:10101000132749083E785FEA320203FB0667C7F5EB
:10102000000707FB06F64FEA54374FEAD64606F1AB
:10103000020607FB066CCCF1005C4FEA1C472CEA69
:10104000074C07FB06F40CFB06F504EB15464FEACC
:10105000961634BF00204FF000404FEAD13706FB10
:1010600007FC4FEA1C4C0CFB0BF7D21B03FB0CF7E5
:1010700061EB07010CFB0EF7B0EB074072EB174278
:101080000CFB08F734BFA2EB0742B2EB074261EB5F
:1010900017414FEA0C444FEA910706FB07FC4FEA61
:1010A0001C4C0CFB0BF7B0EBC74072EB573203FB49
:1010B0000CF734BFA2EBC742B2EBC74261EB57312A
:1010C0000CFB0EF7B0EBC70072EB57720CFB08F786
:1010D00034BFA2EBC702B2EBC70261EB5771039FAB
:1010E0004FEA816141EA921104EBCC044FEAD13717
:1010F0004FEA826206FB07FC42EA90124FEA8060E8
:101100004FEA1C4C0CFB0BF7D21B03FB0CF761EBFB
:1011100007010CFB0EF7B0EB074072EB17420CFB1C
:1011200008F734BFA2EB0742B2EB074261EB17416D
:101130004FEA8C554FEA910704EB9C2406FB07FC11
:101140004FEA1C4C0CFB0BF7B0EBC74072EB57326D
:1011500003FB0CF734BFA2EBC742B2EBC74261EB13
:1011600057310CFB0EF7B0EBC70072EB57720CFB5C
:1011700008F734BFA2EBC702B2EBC70261EB5771AD
:1011800015EB4C254FEA816141EA92114FEA8262E8
:101190004FEAD13742EA901206FB07FC44F1000403
:1011A0004FEA80604FEA1C4C0CFB0BF7D21B03FB91
:1011B0000CF761EB07010CFB0EF7B0EB074072EB8D
:1011C00017420CFB08F734BFA2EB0742B2EB074211
:1011D00061EB174115EB1C154FEA813141EA924151
:1011E0004FEA823242EA90424FEA80304FEA0C7670
:1011F00044F1000448EA03434EEA0B484FF0000E66
:10120000B2EB080C71EB030724BF624639464EEB84
:101210000E0E4FF0000B0018524149414BEB0B0BE7
:10122000B2EB080C71EB03077BF1000B24BF6246A5
:1012300039464EEB0E0E4FF0000B0018524149415B
:101240004BEB0B0BB2EB080C71EB03077BF1000BC4
:1012500024BF624639464EEB0E0E51EA020718BF14
:1012600046F0010616EB0E7655F1000254F100012E
:1012700003D5BDE88901BDE80088BDE88901BDE866
:101280000048B619524141EB0101A3F10103704737
:1012900080807F7E7D7C7B7A7978777676757473B3
:1012A000727171706F6E6E6D6C6C6B6A6A69686872
:1012B000676666656464636362616160605F5F5E08
:1012C0005E5D5D5C5C5B5B5A5A595958585757567E
:1012D00056555555545453535252525151505050E3
:1012E0004F4F4F4E4E4D4D4D4C4C4C4B4B4B4A4A35
:1012F0004A49494948484847474747464646454579
:1013000045444444444343434342424242414141B1
:10131000002B9C4630D477002BD01CB54FEA370702
:1013200003B44FF010004FF01001BAF1000F06D0D7
:10133000BCF1000FDCBF40F0080040F008014FF0A6
:1013400000000FBCBDE810400BF1010BBBF1010F19
:1013500008BF5FEA170722BF12F1010211F1010174
:101360004FF0004143F1000300F0004043EA000069
:101370007047F9D35708D0E746EA064613F1400F05
:101380004FEA16461FDD13F1200FDFBF16430A4652
:10139000002120335B42BED0C3F1200746EA064657
:1013A00002FA07F74FEA164646EA0706C3F1200796
:1013B00022FA03F201FA07F721FA03F14FF00003D2
:1013C00042EA0702A7E746EA020646EA06464FEA6D
:1013D000164646EA0106BCBF46EA0646360C4FF002
:1013E00000034FF000024FF0000194E72DE9804C1C
:1013F0009A46934670B491E8380007C831EA400C29
:1014000048BF34EA430C03D5FFF7E6FDFFF780FF42
:10141000F0BCBDE8008C2DE9804C9A46934670B430
:1014200091E8380007C810F0804F08BF13F0804FD4
:1014300003D100F005F8FFF76BFFF0BCBDE8008CAE
:1014400020F07F4780EA030023F07F4C07EB0C037A
:10145000A3F57C5300F00040A3F1FE0392F0000FCF
:1014600000F0B38095F0000F00F077802DE901497E
:101470004FEA11404FEA144621EA004800FB06FCFF
:1014800024EA064708FB06F607FB08F800FB07F707
:1014900018EB06484CEB164C4FEA124B18EB07487A
:1014A0004FEA15464CEB174022EA0B4E0BFB06FCAD
:1014B00025EA06470EFB06F607FB0EFE0BFB07F7B9
:1014C0001EEB064E4CEB164C4FF000061EEB074E83
:1014D0004CEB174B18EB0B0840F1000018EB0E0B10
:1014E00058EB000840F100008F1A4FF000013CBF9C
:1014F000C943661B14BFB5EB040C00213CBFC943B4
:10150000F61B4FEA17444EEA8E0E27EA04454FEACF
:101510001C4704FB07622CEA074C05FB07F70CFB92
:1015200005F604FB0CFC16EB074642EB174216EBE4
:101530000C4642EB1C421BEB060658EB02024141F3
:1015400046EA9E0601D5BDE80189B619524141EB34
:101550000101A3F10103BDE801894FEA14454FEAF7
:10156000114724EA054621EA074C05FB07F406FB70
:1015700007F70CFB06F105FB0CFC11EB074144EBF4
:1015800017444FEA124711EB0C4144EB1C4422EA8A
:10159000074C05FB07F206FB07F70CFB06F605FBFD
:1015A0000CFC16EB074642EB174216EB0C4642EBDF
:1015B0001C456A1854F1000148BF7047B6195241E2
:1015C00041EB0101A3F10103704795F0000F37D003
:1015D0004FEA11424FEA144721EA024624EA074C37
:1015E00002FB07F106FB07F70CFB06F402FB0CFC01
:1015F00014EB074441EB17414FEA154714EB0C4439
:1016000041EB1C4125EA074C02FB07F506FB07F7F7
:101610000CFB06F602FB0CFC16EB074645EB1745E8
:1016200016EB0C4645EB1C42121951F1000148BF64
:101630007047B619524141EB0101A3F10103704714
:101640004FEA14454FEA114724EA054621EA074CC0
:1016500005FB07F106FB07F70CFB06F24FF000064F
:1016600005FB0CFC12EB074241EB174112EB0C425D
:1016700051EB1C4148BF7047921841EB0101A3F1A7
:101680000103704710B50024084801F079F80A21D9
:10169000064800F0D7FF18B9044800F015FF0446CB
:1016A000024801F0CDF8204610BD000028000020BF
:1016B00070B5044600688168C943C90717D18168BD
:1016C00021F00101816001F033FC05460AE000BF12
:1016D00001F02EFC401B022804D920688068C0431A
:1016E000C00706D020688068C043C007F0D0002043
:1016F00070BDA06A40F01000A062E06A40F00100F6
:10170000E062012070BD0000F8B500260446009696
:1017100000688168C943C9072DD0816841F0010183
:101720008160164816490068B0FBF1F000E0401EE9
:1017300000900028FBD101F0FBFB054616E000BF3E
:1017400001F0F6FB401B022810D920688068C043D6
:10175000C0070BD0A06A40F01000A062E06A40F021
:101760000100E06284F824600120F8BD20688068F0
:10177000C043C007E4D10020F8BD000010000020E5
:1017800040420F00FEE7000001484068704700003B
:101790001400002004490348012209780144034849
:1017A00002F0FAB91006002014000020A00000206A
:1017B00070B5124C124D20782C2816D16078E42890
:1017C00013D100210846225C401C1144C0B2C9B2AA
:1017D0000828F8D3207A884207D1E08840BA03F07D
:1017E000F9FB084903F00AFC6860002028702146D4
:1017F000BDE870400122044802F0CEB91006002076
:10180000140000206F12833AA000002010B5044697
:1018100001F08AFD0349B0FBF1F16143491EFDD29D
:1018200010BD000000093D0010B52820FFF7EEFFB5
:101830002021044801F072FB08B1002010BD0120F6
:1018400010BD0000000C01401FB52022084B0121F3
:1018500020B100200092CDE9010104E00320CDE990
:101860000021CDE902106946184601F067FA1FBD54
:10187000000C014010B50C4C2021204601F04EFB1D
:101880000028F9D02820FFF7C1FF2021204601F0D1
:1018900045FB002806D02021204601F03FFB002810
:1018A000F9D1012010BD0000000C014070B50024EA
:1018B00025466006040EFFF7DDFF08B144F0010481
:1018C0006D1CEDB2082DF4D3204670BD7CB50446E6
:1018D00000200090019000F035F8FFF7A5FF60B3FD
:1018E000174D2021284601F019FB0028F9D02021AE
:1018F000284601F013FB0028F9D100254FEA0D0618
:10190000FFF7D4FF70556D1CEDB2052DF8D39DF88F
:1019100000509DF801309DF802209DF80310E81852
:10192000561806449DF80400864206D1257063705F
:10193000A270E170207100207CBD01207CBD000000
:10194000000C014010B50020FFF77EFF002220218F
:10195000054801F0E8FA142001F00CF9BDE8104048
:101960000120FFF771BF0000000C0140014800F0AA
:10197000F1BF0000E8000020014800F0EBBF0000CC
:101980002C01002030B590F840500124AC40C56BCC
:101990006C60046863604368102B036803D099602F
:1019A0000068C26030BD9A600068C16030BD704799
:1019B00010B54FF400710348FEF734FE02490020D1
:1019C000088010BD300600201E0000202DE9F04FD9
:1019D000ADF22C4D664967A0CDE9000168A36AA26B
:1019E0004FF4007102A8FEF72FFC72A00124CDE98C
:1019F0000040002108237AA2084602F061FC02F0B0
:101A0000B9FB0025DFF8EC91A8466B1C7AA22021D7
:101A10000DF58160FEF718FC08230DF5816219466B
:101A20000020009402F04CFC02F0A4FBFFF7C0FF82
:101A30004FF47A7001F09EF802A8FEF75DFD82B2C5
:101A400041F2883302A96F4802F0EFF840F2DC500F
:101A500001F090F842F20F764FF0000A0DF5027B8C
:101A6000B9F800004F4668B34FF4967001F082F861
:101A70003F88B7F5007F01D340F2FF173A4662492D
:101A800082A8FEF758FD0BF807A060A182A8FEF718
:101A900021FD68B14FF00108FFF78AFF08235CA21F
:101AA00010210020009402F00BFC02F063FB1DE00B
:101AB0005AA182A8FEF70EFD10B1FFF779FF07E0EB
:101AC000FFF776FF0A2001F055F8761EB6B2C7D2AE
:101AD000082354A210210020009402F0F1FB02F030
:101AE00049FB40F6B8306D1C01F044F80A2D03DACA
:101AF000B8F1000F89D002E0B8F1000F26D008231A
:101B00004CA218210020009402F0DAFB02F032FB14
:101B100001234DA2202182A8FEF796FB082382AA6A
:101B200020210020009402F0CBFB02F023FB01985F
:101B3000FEF7E2FC82B241F288333248019902F0AA
:101B400074F801200DF22C4DBDE8F08F082342A25D
:101B500018210020009402F0B3FB02F00BFB4FF4BD
:101B60007A7001F007F802F06BFA0020EAE7000053
:101B70004C6D00086455356A5667314C3962000077
:101B8000746573740000000041542B4D515454553A
:101B90005345524346473D302C312C222573222C8D
:101BA000222573222C222573222C302C302C222229
:101BB0000D0A000041542B4D515454434F4E4E3D9D
:101BC000302C226D717474732E6865636C6F75644C
:101BD000732E636F6D222C313838332C310D0A008F
:101BE000436F6E6E656374696E6720436C6F7564D6
:101BF0002E2E2E001E0000205472793A2025642FCC
:101C00003130000058000020300600204F4B00000B
:101C10005573657220636667204F4B004552524FE3
:101C20005200000055736572206366672066616923
:101C30006C656400436F6E6E656374696E67204DFA
:101C40005154542E2E2E0000436F6E6E2054727924
:101C50003A2025642F350000436C6F756420636F54
:101C60006E6E656374206661696C656400000000D7
:101C700030B5A1B01CA000901EA323A2802101A812
:101C8000FEF7E2FA01240021082325A20846009469
:101C900002F016FB02F06EFA26A101A800F0A0FAED
:101CA0004FF4FA754FF00803009470B123A2082195
:101CB000002002F005FB02F05DFA284600F05AFF12
:101CC00002F0BEF9012021B030BD20A20821002081
:101CD00002F0F6FA02F04EFA284600F04BFF02F04E
:101CE000AFF90020EFE700003133383531393031BA
:101CF00038323500434D43432D3430322D322E34AB
:101D0000472D65787400000041542B43574A4150D9
:101D10003D222573222C222573220D0A000000008B
:101D2000436F6E6E656374696E6720576946692EEE
:101D30002E2E0000474F5420495000005769466935
:101D400020636F6E6E656374656400005769466951
:101D500020636F6E6E656374206661696C656400F4
:101D6000F8B502F06DF901240021082343A20846CA
:101D7000009402F0A5FA02F0FDF94FF4FA7630462D
:101D800000F0F8FE40F2FF124049414801F0F6FE33
:101D9000082340A219460020009402F091FA02F0B4
:101DA000E9F940A140A000F01BFA4FF008030094AD
:101DB00008B13FA200E041A20821002002F080FA11
:101DC000304600F0D7FE02F0D5F908233FA21021DB
:101DD0000020009402F074FA02F0CCF9002531A141
:101DE0003FA000F0FDF938B108233FA210210020E8
:101DF000009402F065FA05E0C82000F0BBFE6D1CFF
:101E0000032DECDB02F0B6F908233BA218210020D9
:101E1000009402F055FA02F0ADF922A13BA000F0C7
:101E2000DFF94FF00803009408B13CA200E03FA2A4
:101E30001821002002F044FA304600F09BFE02F028
:101E400099F918A13EA000F0CBF94FF008030094D7
:101E500008B13FA200E042A22021002002F030FAA7
:101E6000304600F087FE02F085F94FF4FA6000F08A
:101E700081FEBDE8F84002F0E3B800004553503859
:101E800032363620496E69742E2E2E003006002020
:101E90005800002054657374696E672041542E2EDB
:101EA0002E0000004F4B000041540D0A00000000BE
:101EB00041542074657374204F4B000041542074CA
:101EC000657374206661696C6564000044697361C0
:101ED000626C696E67206563686F2E2E2E000000AD
:101EE000415445300D0A00004563686F20646973F2
:101EF00061626C656400000053657474696E6720EC
:101F000053746174696F6E2E2E2E000041542B4362
:101F1000574D4F44453D310D0A0000005374617424
:101F2000696F6E206D6F6465204F4B005374617450
:101F3000696F6E206D6F6465206661696C65640011
:101F400041542B4357444843503D312C310D0A0036
:101F50004448435020656E61626C65640000000077
:101F60005365742044484350206661696C65640081
:101F70002DE9F04FADF20C4D002848D0002946D095
:101F80008DE80E0003464FF4007422A2214603A8F8
:101F9000FEF75AF9FFF70CFD03A8FEF7ADFA82B27F
:101FA0004FF47A6303A9234801F03FFE00F0C0FF1D
:101FB0000546214EA14640F2FF1B4FF000080DF5EB
:101FC000037A4FF4FA771DE03488C4B14C4500D34E
:101FD0005C462246194983A8FEF7ADFA0AF8048048
:101FE00017A183A8FEF776FA20B101200DF20C4D5F
:101FF000BDE8F08F13A183A8FEF76CFA38B9012071
:1020000000F0B8FD00F094FF401BB842DCD3002084
:10201000ECE7000041542B4D5154545055423D3093
:102020002C222573222C222573222C25642C256436
:102030000D0A0000580000201E000020300600207D
:102040004F4B00004552524F5200000070B5DAB0BD
:102050000D460646034600913DA24FF4807101A84B
:10206000FEF7F2F80124002108233FA2084600945D
:1020700002F026F9334640A2402141A8FEF7E4F8D9
:10208000082341AA19460020009402F019F92B46B2
:102090003CA2202151A8FEF7D7F8082351AA10210D
:1020A0000020009402F00CF902F064F837A101A8B6
:1020B00000F096F84FF47A754FF00803009410B1D1
:1020C00033A2182121E036A21821002002F0F8F8EE
:1020D000082338A220210020009402F0F1F802F039
:1020E00049F8C82000F046FD28A101A800F078F8C2
:1020F0004FF008030094A8B125A21821002002F097
:10210000DFF808232EA220210094002002F0D8F846
:1021100002F030F8284600F02DFD01F091FF01207B
:102120005AB070BD1EA21821002002F0C9F8082381
:1021300027A220210020009402F0C2F802F01AF831
:10214000284600F017FD01F07BFF0020E8E70000C3
:1021500041542B4D5154545355423D302C2225733C
:10216000222C25640D0A0000537562736372696244
:10217000696E672E2E2E0000546F7069633A202519
:1021800073000000516F533A202564004F4B00004C
:10219000537562736372696265204F4B00000000E3
:1021A000537562736372696265206661696C656408
:1021B000000000005265747279696E672E2E2E0041
:1021C00052657472792073756363657373000000E0
:1021D0005265747279206661696C65640000000064
:1021E0002DE9F04FADF5017D8B4604464EF6602596
:1021F000FFF7DEFB2046FEF77FF982B2C8232146B7
:10220000214801F012FD322000F0B4FC1F4F4FF4C2
:10221000007940F2FF180026EA4623E03888F0B142
:10222000C82000F0A7FC3C884C4500D34446224619
:1022300017496846FEF77FF90AF80460BBF1000011
:102240000BD001466846FEF745F930B1FFF7B0FB09
:1022500001200DF5017DBDE8F08FFFF7A9FB0A20F5
:1022600000F088FC6D1EADB2D8D23C884C4500D33E
:102270004446224606496846FEF75DF90DF80460BB
:10228000FFF796FB0020E4E7580000201E00002026
:102290003006002010B54FF4805000F043FD4FF49D
:1022A000005000F03FFDBDE810404FF4804000F0CA
:1022B00039BD72B6FEE7000006490020C861064835
:1022C000016941F004010161016941F040010161CE
:1022D000704700007001002000200240064A0021E3
:1022E000D16106490A6942F002020A61486108693F
:1022F00040F040000861704770010020002002405B
:10230000044B0022DA61044A136943F001031361AC
:102310000180704770010020002002401448002214
:10232000C168CB06134904D5CA6942F00202CA61EA
:102330001022C3685B0705D5CB6943F00103CB616D
:1023400042F00402C369DB0707D0CB6943F0040302
:10235000CB61C16921F00101C161A2F58071013930
:1023600001D0C2607047C16921F00101C1617047AD
:10237000002002407001002070B5054600F0D8FD35
:102380000646114C09E0681C07D025B100F0D0FDCD
:10239000801BA84201D9032070BDE068C007F2D1BC
:1023A000E068800601D52020E060E068C00605D422
:1023B000E069C00702D1E068400703D5FFF7AEFF30
:1023C000012070BD002070BD00200240F8B500243F
:1023D000009490F824202546012A12D0012280F88A
:1023E00024204A681F23072A0DD20668776B521EE5
:1023F00002EB820293409F430B6893401F43776335
:1024000019E00220F8BD06680D2A0AD2376BD21FE8
:1024100002EB820293409F430B6893401F43376354
:1024200009E0F76A0D3A02EB820293409F430B6882
:1024300093401F43F7620A68072306680A2A0AD3F3
:10244000F7680A3A02EB420293409F438B6893403D
:102450001F43F76008E0376902EB420293409F4355
:102460008B6893401F4337610A68102A01D0112AF4
:1024700020D1124B02689A4217D193681B0219D4DB
:10248000936843F4000393600968102912D10C4942
:102490000C4A0968B1FBF2F101EB8101490000E04F
:1024A000491E00910029FBD104E0816A41F020011E
:1024B0008162012480F824502046F8BD00240140A8
:1024C0001000002040420F000068C06C7047000000
:1024D0002DE9F0414FF0000704003D467ED0A06A90
:1024E000002628B9E66284F82460204600F07EF8D1
:1024F0002046FFF7DDF8A16AC90600D420B1A06A22
:1025000040F01000A06269E0A16A21F4885141F016
:102510000201A1626268E169237B0A4347EA430141
:102520000A43A1684FF48077B94209D0012907D046
:102530005FF0000194F814C0BCF1010F02D00AE072
:102540003946F7E7F3B1A36A43F02003A362E36AD5
:1025500043F00103E3622368D3F804C02CF4694C10
:102560004CEA010CC3F804C021688B68DFF870C026
:1025700003EA0C0313438B60A168B9420BD0012915
:1025800009D00CE0DFF85CC0A3690CEB43330B43CC
:1025900043F40061DFE7218A0D05A5F58015216868
:1025A000CB6A23F470032B43CB62216889680E4BFE
:1025B0001940914208D1E662A16A21F0020141F07E
:1025C0000101A162BDE8F081A06A20F0020040F0A4
:1025D0001000A062E06A40F00100E0620120F1E733
:1025E000FDF7E1FF00E0FFFFFE0E1FFF00B585B025
:1025F0000021009101910291039100680E498842E7
:1026000018D10E48816941F400718161816901F43A
:1026100000710491816941F0080181618069694616
:1026200000F008000490022000900320019004486C
:1026300000F084FB05B000BD002401400010024002
:10264000000C01402DE9F84300270D460446009791
:1026500000F06EFC804620688168C90508D5A06A34
:1026600040F02000A06284F824700120BDE8F883C7
:102670004168C90503D4C06A10F4700F2AD0022043
:1026800000F0F4FC3B490968B1FBF0F620680369EF
:1026900039490B424FEA61014FEAA1121FD1C368C9
:1026A0004FEA611C13EA0C0F19D103690B4225D1C3
:1026B000C068104222D1142023E0681C0AD02DB13A
:1026C00000F036FCA0EB0800A84203D9206800689F
:1026D000800725D5206800688007EED52DE00369C6
:1026E0000B4202D1C168114206D0026923490A4255
:1026F00006D1C068084203D1542002E0292000E03E
:10270000FC204643009816E0681C11D02DB100F063
:102710000FFCA0EB0800A8420AD90098B04207D2EB
:10272000A06A40F00400A06284F8247003209DE7B2
:102730000098401C0090B042E6D321686FF0120070
:102740000860A06A40F40070A06220688068C0F34E
:10275000424007280CD1207B50B9A06A20F4807039
:10276000A062A06AC00403D4A06A40F00100A06285
:1027700000207BE710000020244992244992240085
:1027800070B5044690F8240001280DD0012084F88B
:1027900024002046FEF7B8FF02004FF0000005D0ED
:1027A00084F82400104670BD022070BDA16A40F27A
:1027B0000123994341F48071A1621F4D23681F4991
:1027C000AB4218D10E6816F4702F14D0A66A46F4E6
:1027D0008016A6620E68760505D5A66A26F4005610
:1027E00046F48056A662A66AF6040AD5E66A26F082
:1027F0000606E66206E0A66A26F48016A6625E6811
:10280000E9E7E06284F824006FF0020018602068B5
:102810008368C3F34243072B05D1A84208D1096856
:1028200011F4702F04D0816841F480118160B9E700
:10283000816841F4A001F9E7002801400424014027
:1028400010B5044690F82400012807D0012084F830
:1028500024002046FEF72CFF10B107E0022010BD37
:10286000A16A21F4885141F00101A162002184F89C
:10287000241010BD10B590F821100022022905D0B7
:102880000421816380F82020012010BD01680B68BD
:1028900023F00E030B6001680B6823F001030B604B
:1028A00090F84030C46B012101FA03F3636080F8B3
:1028B000211080F82020104610BD000010B590F8BF
:1028C00021100024022903D00421816301243DE06A
:1028D00001680A6822F00E020A6001680A6822F0A4
:1028E00001020A601A4A0168914201D1012121E0E6
:1028F000174A1432914201D110211BE0144A2832A8
:10290000914201D1891515E0114A3C32914201D121
:1029100089140FE00E4A5032914202D14FF48031B7
:1029200008E00B4A6432914202D14FF4801101E079
:102930004FF08071064A083A5160012180F8211059
:10294000002180F82010416B01B18847204610BD5E
:10295000080002402DE9F05FC16B0C6801680B684C
:10296000D0F840C0042202FA0CF2494DDFF824A14D
:10297000494E4A4FDFF828B1DFF828E122422CD037
:102980005A072AD50A68920603D40A6822F004027C
:102990000A600168A94201D1042219E0514501D120
:1029A000402215E0B14202D14FF4806210E0B942FA
:1029B00002D14FF480420BE0594502D14FF48022FE
:1029C00006E0714502D14FF4800201E04FF08062D1
:1029D0002F4908394A60C16A3BE04FF0020808FA03
:1029E0000CF818EA040F4FF000094FF0010235D03F
:1029F0005FEA837832D50B689B0605D40B6823F019
:102A00000A030B6080F821200168A94201D102224B
:102A100019E0514501D1202215E0B14202D14FF415
:102A2000007210E0B94202D14FF400520BE0594558
:102A300002D14FF4003206E0714502D14FF400128A
:102A400001E04FF00072124908394A6080F8209086
:102A5000816A00291AD0BDE8F05F0847082505FA09
:102A60000CF5254212D01B0710D50B6823F00E037E
:102A70000B6090F84010C36B02FA01F15960826359
:102A800080F8212080F82090016BE2E7BDE8F09FFC
:102A9000080002401C000240300002404400024096
:102AA000580002406C00024030B528B308C81349F2
:102AB00014221944B1FBF2F18900C163104981630A
:102AC000022141771A6843F6F0718A43D0E9001475
:102AD0002143D0E902452C43214304692143446941
:102AE000214384692143114319600021416301227C
:102AF00042770177084630BD012030BDF8FFFDBFA9
:102B00000000024070B5044690F82000002501281E
:102B10000CD0012084F8200094F821600020012EC0
:102B200006D084F820000225284670BD022070BD22
:102B3000022684F82160A0632068066826F001065A
:102B400006602046FEF71EFFE06A00282068016844
:102B500002D041F00E0106E021F00401016020687E
:102B6000016841F00A0101602068016841F001013B
:102B70000160D9E770B5044600F0DAF90546601C3B
:102B800002D004480078044400F0D2F9401BA0426F
:102B9000FAD370BD040000202DE9F0470546264811
:102BA0000F460126017E01290FD0012181460176C1
:102BB0002868DFF888804CF25034022808D0A246FA
:102BC0002046FFF7D9FBA8B131E00220BDE8F0872D
:102BD0002046FFF7D1FB08BB0120FFF76DFB204625
:102BE000FFF7CAFBD8F81010064621F00401C8F818
:102BF00010101CE04FF0FF303860AC6811E0204648
:102C0000FFF76CFB5046FFF7B7FBD8F81010060033
:102C100021F00201C8F8101001D03C6007E004F573
:102C20008064D5E9020100EB8120A042E7D80021B1
:102C300089F818103046C9E77001002000200240D2
:102C40000348016941F080010161002070470000E4
:102C5000002002402DE9F05F07461C48884600240A
:102C6000017E15461E46012909D0012181460176C3
:102C70004CF2503A5046FFF77FFB18B122E0022099
:102C8000BDE8F09F012F02D0022F00D00427D346C9
:102C9000DFF83CA0220128463146FDF7ABFA81B2AD
:102CA00008EB4400FFF72CFB5846FFF765FBDAF80A
:102CB000102022F00102CAF8102018B9641CE4B2F6
:102CC000BC42E7D3002289F81820D9E77001002020
:102CD00000200240064900200A69120607D5054A6D
:102CE0004A60054A4A600969090600D50120704713
:102CF0000020024023016745AB89EFCD0121084A3E
:102D0000B0F5805F07D0B0F5005F06D0B0F5804F1A
:102D100000D191707047117070475170704700007A
:102D200000000020044910B50A68024202D0086081
:102D3000FFF7E4FF10BD0000140401402DE9F84F37
:102D4000DFF8B8910024A9F1040B23460F2709F1FD
:102D5000040AABF1040EC9E00125A5402A40AA42AD
:102D60007DD1674ED1F804C0ACEB0608B44532D033
:102D700014DCBCF1030F3AD009DCBCF1000F2AD0FF
:102D8000BCF1010F1CD0BCF1020F31D11DE0BCF130
:102D9000110F17D0BCF1120F2AD119E0B8F5881F16
:102DA00019D006DCB8F5803F15D0B8F5801F1FD1CB
:102DB00011E0B8F5001F0ED0B8F5041F18D10AE0D5
:102DC000CB6815E0CB681B1D12E0CB6808330FE021
:102DD000CB680C330CE08B682BB1012B4FF0080350
:102DE00003D0456104E0042302E0056100E0002314
:102DF000FF2A01D8064601E000F104064FEA8405E7
:102E000001D9A5F12005D6F8008007FA05FC28EACB
:102E10000C0803FA05F548EA0508C6F800804D6875
:102E2000ED0062D5374DAE6946F00106AE61AD6981
:102E300024F0030605F001050095334D06EB050C63
:102E4000DCF80850A607360F07FA06F825EA080549
:102E5000DFF8B880404503D14FF0000817E044E0A8
:102E6000DFF8AC80404502D14FF001080FE0DFF8F9
:102E7000A480404502D14FF0020808E0DFF89880B6
:102E8000404502D14FF0030801E04FF0040808FA72
:102E900006F848EA0508CCF808804D68D9F80060C3
:102EA000ED024D4601D5164300E096432E604D6875
:102EB000DAF80060AD02554601D5164300E09643AE
:102EC0002E604D68DBF80060AD035D4601D516430A
:102ED00000E096432E604D68DEF80060ED03754615
:102EE00001D5164300E096432E60641C0D682A4607
:102EF000E5407FF431AFBDE8F88F000008040140E1
:102F000000001110001002400000014000080140C4
:102F1000000C01400010014000140140806808408E
:102F200000D0012070470AB1016170470904FBE736
:102F30000148806870470000040000200248816852
:102F4000027811448160704704000020074810B5E2
:102F5000016841F010010160032000F075F80F20B6
:102F600000F006F800F024F8002010BD0020024018
:102F700070B50D4D04464FF47A712878B1FBF0F02E
:102F80000A490968B1FBF0F000F0AAFB48B9102C1F
:102F900007D200222146501E00F036F800206C6057
:102FA00070BD012070BD0000040000201000002052
:102FB0000C4808B5816941F001018161816901F026
:102FC00001010091C16941F08051C161C06900F007
:102FD000805000900448416821F0E06141F00071A8
:102FE000416008BD0010024000000140002809DBDC
:102FF00000F01F02012191404009800000F1E02013
:10300000C0F8001170470000F0B40E4B1B680C466E
:10301000C3F30223C3F10705042D00D90425191DAC
:10302000072901D2002300E0DB1E012606FA05F184
:10303000491E214099409E40761E16403143F0BC07
:1030400001F055BD0CED00E0064900F007020868EC
:103050004FF6FF03184040EA0220034A104308607D
:10306000704700000CED00E00000FA0510B50146C5
:103070000020234C012922D0022939D010291DD14A
:1030800061682268D20119D51E48C1F38342C90381
:10309000805C0AD561681B4AC1F34041921E515CB5
:1030A000194AB2FBF1F1484301E01849484361680D
:1030B000490203D440000321B0FBF1F010BD226AA5
:1030C000C2F30121012903D1920701D5C80310BD24
:1030D000022905D1626A920702D549F6404010BD27
:1030E0000329FCD121688903F9D54FF2244010BD92
:1030F00000F030F96168C1F38131491C4900DBE718
:10310000001002409652000800127A0000093D00AB
:103110002DE9F84305460078354CC00754D0E069E6
:103120000026C00008D4E06940F08050E061E0690A
:10313000012600F0805000902E480168C90512D485
:103140000168804641F480710160FFF7F1FE074697
:1031500005E000BFFFF7ECFEC01B642823D8D8F8B9
:103160000000C005F6D5206A10F4407021D0A9886F
:1031700001F4407181421CD0206A1F49012220F4D1
:1031800040700A6000220A602062C00711D0FFF779
:10319000CFFE074641F2883808E000BFFFF7C8FEBF
:1031A000C11B414502D90320BDE8F883206A80078E
:1031B000F4D5206A696820F44070084320621EB18B
:1031C000E06920F08050E0612878800705D56068CC
:1031D000A96820F44040084360602878C00605D5FF
:1031E0006068E96820F48000084360600020DBE745
:1031F0000010024000700040400442422DE9F047B8
:103200000F46050061D0434E306800F00700B84219
:1032100009D2306820F0070038433060306800F091
:103220000700B84251D128683B4C810712D54007AE
:1032300003D5606840F4E06060602878000703D53B
:10324000606840F4605060606068A96820F0F00039
:10325000084360602878C00728D06868012810D02B
:103260002168022810D0890700292EDA616821F030
:10327000030101436160FFF75BFE804641F288393C
:103280000DE021688903EFE78901EDE7FFF750FEC4
:10329000A0EB0801494502D90320BDE8F08760682A
:1032A000696800F00C00B0EB810FEFD1306800F0DE
:1032B0000700B8420BD9306820F00700384330606F
:1032C000306800F00700B84201D00120E5E7287817
:1032D000400705D56068E96820F4E0600843606055
:1032E0002878000706D56068296920F4605040EA14
:1032F000C100606000F03EF86168084AC1F3031144
:10330000515CC8400649086006480068FFF730FE77
:103310000020C2E70020024000100240A652000830
:1033200010000020080000200148006870470000DD
:10333000100000200448054900684968044AC1F3A8
:103340000221515CC840704710000020001002406C
:10335000B65200080448054900684968044AC1F3A8
:10336000C221515CC840704710000020001002408C
:10337000B65200080E4A51680E4801F00C03042BA7
:1033800011D0082B0FD10C48C1F38343C903C05C93
:103390000AD55168084AC1F34041921E515C054A62
:1033A0005043B0FBF1F070470449484370470000B8
:1033B0000010024000127A008452000800093D000B
:1033C0002DE9F84F040070D02078C04DC00749D0D7
:1033D0006868C0F38100012807D06868C0F38100E5
:1033E000022809D16868C00306D52868800339D54A
:1033F00060680028E7D035E06068B0F5803F0BD00A
:1034000010B1B0F5A02F11D0286820F480302860CA
:10341000286820F4802002E0286840F4803028608A
:10342000606890B1FFF784FD06460AE0286840F422
:1034300080202860F0E700BFFFF77AFD801B64283A
:1034400073D828688003F7D50CE0FFF771FD0646B6
:1034500005E000BFFFF76CFD801B6428F0D82868EA
:103460008003F7D420789A4E80074FF001094FF07F
:10347000000839D5686810F00C0F07D06868C0F3F1
:103480008100022809D16868C00306D42868800733
:1034900014D52069012808D110E02069B0B1C6F820
:1034A0000090FFF745FD074605E00AE1FFF740FD04
:1034B000C01B0228C4D828688007F7D5286861692E
:1034C00020F0F80040EAC10028600DE0C6F8008056
:1034D000FFF72EFD074604E0FFF72AFDC01B022878
:1034E00023D828688007F7D4207800072CD579489E
:1034F000A169D9B1C0F80090FFF71AFD074604E0B2
:10350000FFF716FDC01B02280FD8686A8007F7D5A1
:1035100071484FF4FA510068B0FBF1F0009000BF21
:103520000098411E0091FAD20EE080E0C0F80080C1
:10353000FFF7FEFC074604E0FFF7FAFCC01B022879
:1035400075D8686A8007F7D42078400760D5E869A5
:103550000027C00008D4E86940F08050E861E869BD
:10356000012700F0805000905C480168C90513D421
:103570000168834641F480710160FFF7D9FC8246FF
:1035800006E000BFFFF7D4FCA0EB0A0064284ED889
:10359000DBF80000C005F5D5E06801280AD008B1C5
:1035A000052813D0286A20F001002862286A20F03C
:1035B000040002E0286A40F001002862E06841F25D
:1035C000883B98B1FFF7B4FC82460BE0286A40F0D4
:1035D00004002862EEE700BFFFF7AAFCA0EB0A0197
:1035E00059455AD8286A8007F6D50CE0FFF7A0FCA9
:1035F000824605E0FFF79CFCA0EB0A0159454CD838
:10360000286A8007F6D41FB1E86920F08050E8618D
:10361000E06988B36968C1F38101022944D00228B6
:10362000C6F8608004D0FFF783FC044638E034E03D
:10363000FFF77EFC074604E0FFF77AFCC01B022878
:103640002BD828688001F7D4206AB0F5803F05D1D7
:103650006868A16820F4003008436860D4E9080174
:103660000843696821F4741108436860C6F86090E3
:10367000FFF75EFC044606E025E000BFFFF758FCBC
:10368000001B022809D828688001F7D51BE000BF7D
:10369000FFF74EFC001B022802D90320BDE8F88F7B
:1036A00028688001F4D40EE00128F7D06868226A07
:1036B00000F48031914204D1616A00F470108842B4
:1036C00001D00120EAE70020E8E7000000100240F6
:1036D000000042428004424210000020007000407E
:1036E00010B5401EB0F1807F01D3012010BD4FF016
:1036F000E02460610F21601701F0F9F90020A0615A
:1037000007202061002010BD704710B504460068F6
:10371000406994F84110C0F3C010212911D180B143
:103720002068143050E8001F21F0800140E80012AA
:10373000002AF5D1A06B08B1FFF79CF8204601F0F4
:1037400028F82068406994F84210C0F380102229BC
:1037500011D180B12068143050E8001F21F04001E1
:1037600040E80012002AF5D1E06B08B1FFF782F8BB
:10377000204600F0E7FF002010BD7047F8B5016853
:1037800004460868CA684B6910F00F0F4FF0000537
:1037900059D003F0010602F49077374365D0C10792
:1037A00005D0D10503D5616C41F001016164410789
:1037B00005D5D90703D0616C41F00201616481072E
:1037C00005D5D90703D0616C41F00401616401079C
:1037D00007D502F02001314303D0616C41F00801AC
:1037E0006164616C00293AD0800604D5900602D548
:1037F000204600F0DCFF20684069616CC0F3801057
:10380000090700D460B3204600F09CFF206840699F
:10381000400621D52068143050E8001F21F04001F7
:1038200040E80012002AF5D1E06BA8B16D49416370
:10383000E06BFFF743F8002811D0E06B416B01B05B
:10384000BDE8F040084783060FD593060DD5204606
:10385000BDE8F84000F0ABBF2046FFF78EFFF8BD93
:103860002046FFF78AFF6564F8BD266B2023012EF2
:103870007CD1C6067AD5D60678D508684868009007
:1038800048694FF00206400640D5E16B0868406881
:103890000004000CE8D0A28D8242E5D9E085886959
:1038A00020282DD020680C3050E8001F21F48071B2
:1038B00040E80012002AF5D12068143050E8001FBB
:1038C00021F0010140E80012002AF5D120681430EF
:1038D00050E8001F21F0400140E80012002AF5D115
:1038E00084F84230256320680C3050E8001F21F036
:1038F000100140E80012002AF5D1E06BFEF7BAFF94
:103900006663A08DE18D401A81B22AE0A08DE18D21
:10391000401A81B2E08D0028A6D00029A4D02268E8
:103920000C3252E8000F20F4907042E80007002F9C
:10393000F5D12068143050E8002F22F0010240E851
:103940000027002FF5D184F84230256320680C3021
:1039500050E8002F22F0100240E80023002BF5D1A0
:1039600066632046FFF7D0FEF8BDFFE705062BD5BE
:10397000150629D594F841002128F5D1A068B0F5A5
:10398000805F01D12069B0B1206A411C21622168A9
:1039900000784860E08C401E0004000CE084E3D115
:1039A0002068C16821F08001C1602068C16841F0D1
:1039B0004001C160D8E7206A0088C0F30800486071
:1039C000206A801C2062E5E74006CDD55006CBD5A5
:1039D000CA68204622F04002CA6084F8413000F0F4
:1039E00074F9C1E74746000870B5040004D094F8A4
:1039F0004100002510B106E0012070BD84F8405060
:103A0000204600F023F8242084F841002068C16893
:103A100021F40051C160204600F02AFF20680169AE
:103A200021F4904101612068416921F02A0141613E
:103A30002068C16841F40051C1606564202084F8A9
:103A4000410084F842006563002070BDF0B585B088
:103A5000002400940194029403940646414F0368A5
:103A6000414902200322414DBB424DD18B6943F4B1
:103A700080438B618B6903F4804304938B6943F02B
:103A800004038B618969039201F00401049101022E
:103A9000CDE9001069462846FFF750F92815CDE911
:103AA0000004694628460294FFF748F9314D304832
:103AB000802701C5102091C52E4845F810496C613A
:103AC000AC61EC61FEF7F0FF08B1FEF7F2FBB56305
:103AD0006E62284D264844351430C5E90004C5E916
:103AE00002472C616C61AC612846EC61FEF7DCFF9B
:103AF00008B1FEF7DEFBF5630022022125206E628D
:103B0000FFF782FA252028E01B4EB34227D1CB696C
:103B100043F40033CB61CB6903F4003304938B6926
:103B200043F004038B618969039201F0040104915D
:103B30000421CDE9001069462846FFF7FFF8082068
:103B4000CDE90004694628460294FFF7F7F8002201
:103B500003212620FFF758FA2620FFF747FA05B081
:103B6000F0BD000000380140001002400008014094
:103B700044000240E80000200044004090F8423039
:103B8000202B01D00220704721B11AB1002303631A
:103B900000F0CABE0120704790F84230202B01D0BF
:103BA0000220704721B11AB10023036300F004BF63
:103BB0000120704710B50446154884420FD11549BD
:103BC0000878401CC0B20870092802D3FDF7F0FD48
:103BD00005E01149012201440D48FFF7DDFF0F48C0
:103BE000844213D1E08DA0F2FF1041420C480180C5
:103BF000018819B10B4A008800211154BDE810401A
:103C000040F2FF1207490548FFF7B8BF10BD00009A
:103C1000A000002014000020100600205800002002
:103C20001E0000203006002070472DE9F8430446AE
:103C300090F84100984616460D46202802D00220F2
:103C4000BDE8F88385B17EB100206064212084F84E
:103C50004100FFF76DF9A6848146E684A06820271D
:103C6000B0F5805F02D003E00120E9E7206910B1E0
:103C70002E4600250EE000260CE08021204600F0B4
:103C8000B6FEA8B9C6B116F8010B21684860E08CF1
:103C9000401EE084E08C4B464FF00002CDF80080DF
:103CA0000028EAD14FF04001204600F0A0FE40B1CC
:103CB00084F841700320C3E735F8020BC0F3080015
:103CC000E3E784F841700020BAE77047FEE70000A0
:103CD00070B501220E4D940321462846FFF723F9C3
:103CE0000122560331462846FFF71DF900F048F837
:103CF000002221462846FFF716F900F041F800227D
:103D000031462846FFF70FF9BDE8704000F038B89B
:103D10000010014070B50B4D4FF480440022214645
:103D20002846FFF700F9012251032846FFF7FBF868
:103D300000F026F821462846BDE870400122FFF732
:103D4000F2B800000010014070B50C4C0122910344
:103D50002046FFF7E8F800F013F801225503294642
:103D60002046FFF7E0F800F00BF800222946204635
:103D7000FFF7D9F8BDE8704000F002B8001001402C
:103D80000320401EC0B2FCD27047000010B5C2B084
:103D90000C4CCDE900010CA24FF4807102A82368FD
:103DA000FCF752FA401EFF280AD200231A4602A945
:103DB00013A0FEF7DDF8002802D02068401C206028
:103DC00042B010BD240000207B5C2269645C223A72
:103DD0005C22256C755C225C2C5C22706172616DCA
:103DE000735C223A7B5C2225735C223A7B5C2276F0
:103DF000616C75655C223A25737D7D7D0000000055
:103E0000247379732F6455356A5667314C39622FA4
:103E1000746573742F7468696E672F70726F706544
:103E20007274792F706F737400000000014601A056
:103E3000FFF7ACBF434F3200014601A0FFF7A6BF1A
:103E400068756D696469747900000000014601A01D
:103E5000FFF79CBF4D513500014601A0FFF796BF0B
:103E600074656D7065726174757265003EB500248D
:103E700011480094019402940E4984600160047317
:103E80000475012505614FF460214460C161FEF7AE
:103E90001FFB08B1FEF70DFA0920CDE900056946C0
:103EA00002940548FEF792FA002801D0FEF701FAC5
:103EB0003EBD000000240140280000200D4808B548
:103EC000416941F0010141614069002200F00100B7
:103ED000009011460E20FFF797F80E20FFF786F8A6
:103EE000002211460F20FFF78FF8BDE808400F2091
:103EF000FFF77CB800100240F0B585B000200090BC
:103F00000190029003902B48816941F0100181617A
:103F1000816901F010010491816941F02001816102
:103F2000816901F020010491816941F004018161FE
:103F3000816901F004010491816941F00801816106
:103F400080691D4E00F008004FF4C0440490012227
:103F500021463046FEF7E7FF184F01222021384660
:103F6000FEF7E1FF009401240325694630460194E1
:103F7000CDE90245FEF7E2FE4FF4E0400090104824
:103F8000CDE9010469463846FEF7D8FE2020CDE988
:103F9000000469463846CDE90245FEF7CFFE00220F
:103FA00011462820FFF730F82820FFF71FF805B04A
:103FB000F0BD00000010024000100140000C014064
:103FC0000000211010B50E4C0C480C2120604FF45D
:103FD000E13060600020A060E060C4E90401A061FD
:103FE000E0612046FFF700FD08B1FEF762F92068A6
:103FF000C16841F01001C16010BD000000380140EF
:10400000580000200C4810B50A4901604FF41651C1
:104010004160002181600C22C160C0E9041281610D
:10402000C161FFF7E1FC002803D0BDE81040FEF7B6
:1040300040B910BD00440040A0000020FEE7FEE7AC
:1040400030B40021084B0A465FF0000003EBC004C7
:10405000401CC0B262548028F8D3491CC9B2082958
:10406000F2D330BC00F086B89001002030B5CC0807
:1040700001F0070301259D40EBB2064D05EBC0059D
:10408000C808285C0AB1184302E063EA0000C04394
:10409000285530BD9001002010B50021AE2000F061
:1040A0002DF90021084600F029F90021102000F028
:1040B00025F90021402000F021F90021812000F0A5
:1040C0001DF90021CF2000F019F90021A12000F0F6
:1040D00015F90021C82000F011F90021A62000F0F8
:1040E0000DF90021A82000F009F900213F2000F07F
:1040F00005F90021D32000F001F90021084600F065
:10410000FDF80021D52000F0F9F80021802000F012
:10411000F5F80021D92000F0F1F80021F12000F09D
:10412000EDF80021DA2000F0E9F80021122000F07B
:10413000E5F80021DB2000F0E1F80021302000F05C
:10414000DDF80021202000F0D9F80021022000F045
:10415000D5F800218D2000F0D1F80021142000F0C6
:10416000CDF8FFF76DFF0021BDE81040AF2000F053
:10417000C5B8000070B5184E002400BF04F1B000AF
:10418000C0B2002100F0BAF80021084600F0B6F8ED
:104190000021102000F0B2F8FFF79AFD782000F01F
:1041A000FDF8FFF7D1FD402000F0F8F8FFF7CCFD57
:1041B0005FF0000506EBC500005D00F0EFF8FFF7CB
:1041C000C3FD6D1CEDB2802DF4D3FFF7A3FD641C7D
:1041D000E4B2082CD2D370BD900100202DE9FC4F31
:1041E0001C460E4682468B460190082B0DD0600778
:1041F00000D0012000EBD40061084843C0B28146E2
:10420000203AD0B2009000204BE00620F7E7082CBF
:1042100013D00C2C18D0102C1BD0182C44D1009883
:10422000234900EBC00000BF01EB8001002711F81B
:104230000850E80712D00B9A13E000981D4900EBD4
:10424000400001EB4001F1E700981B4900EB400002
:10425000EAE71A49009801EB0011E7E70B9828B349
:10426000002231465046FFF701FF761C7F1C6D0887
:10427000FFB2F6B2082FDCD30AF1010000F0FF0A0A
:10428000082C0AD00199AAEB0100B0EB540F04D11D
:104290000BF108008A4600F0FF0B08F101005E46B2
:1042A000C0B280464845B2D3BDE8FC8F0122D8E7B2
:1042B0004A5F0008BE520008E65400085A59000838
:1042C0002DE9F8411E46154688460446079F0BE037
:1042D0003346414620460097FFF780FF082E0AD05C
:1042E00004EB5600C4B26D1C2A78A2F120005E28AF
:1042F000EED9BDE8F881A41DE4B2F4E770B50C4630
:104300000546FFF7E5FC782000F048F8FFF71CFDB4
:104310000CB1402000E0002000F040F8FFF714FD51
:10432000284600F03BF8FFF70FFDBDE87040FFF7AF
:10433000F1BC704770B5174C2078002560B125702E
:1043400000F056F8E0B100F053F805281AD000F05C
:1043500055F800BFFFF774FE607828B1657000F073
:1043600047F808B100F08AF8A078002810D0A570AE
:1043700000F03EF800280BD0BDE8704000F050B8C7
:10438000012002E000F0DCF8002000F043F8E1E753
:1043900070BD000000000020704700002DE9F041D2
:1043A000124F002405464FF480487E14280601D59C
:1043B000012200E0002241463846FEF7B4FDFFF737
:1043C000DFFC012231463846FEF7ADFDFFF7D8FC91
:1043D000002231463846FEF7A6FD6806641C050E2D
:1043E000E4B2082CE2D3BDE8F081000000100140E7
:1043F00001480078704700001C000020044908783C
:10440000052801D2401C00E0002008707047000021
:104410001C00002001490870704700001C000020AB
:10442000134810B50078134C01280BD0022810D087
:10443000032814D0042804D1A089642801D3643847
:10444000A08110BDB4F904000028FADD401EA08050
:1044500010BDE0880A28FBD30A38E08010BD064969
:10446000A0688842FADB00F095FEA06010BD000055
:104470001C0000201C0600200000C842144810B593
:104480000078144C01280DD0022812D0032816D031
:10449000042806D1A08941F26801884201D2643023
:1044A000A08110BDB4F904003228FADA401CA080C3
:1044B00010BDE0885A28FBD20A30E08010BD0649C2
:1044C000A0688842FADA054900F022FDA06010BD1C
:1044D0001C0000201C060020004083450000C8424C
:1044E00000221146435C491C53404FEAF3721029E5
:1044F000F8D3104670470000004870471C060020A3
:10450000AFF3008010B50B4C0B49206888420CD1EA
:104510002046FFF7E5FF2169814206D12146BDE82B
:10452000104014220548FCF74BB8BDE8104000F0DD
:1045300033B8000000F80108785634121C06002039
:10454000F0B585B01248FFF7CBFF11490861FEF7BF
:10455000C1FB0020049000900E4D0120CDE90250D7
:1045600004A96846FEF718FB094F05265FF0000412
:1045700005EB840157F8242000230220FEF76AFB94
:10458000641CB442F4D3FEF75BFB05B0F0BD000041
:104590001C06002000F8010810B5094C07482060EF
:1045A0002320A0805020E0800648A0604FF4FA70DD
:1045B000A0812046FFF794FF206110BD7856341289
:1045C0001C06002000007A44FEF7B8BC30B593B05A
:1045D00028216846FCF748F814210AA8FCF744F89B
:1045E000002501200F9510951195010412958DE875
:1045F000230004904FF4E010CDE908100224079442
:104600006846FEF7DDFE08B172B6FEE70AA90F2084
:1046100081E831004FF48060CDE90D0502210AA840
:10462000FEF7ECFD08B172B6FEE74FF400401190C2
:104630000F940FA8FEF76CFD002801D072B6FEE7BC
:1046400013B030BD704710B5406A0021C185C184E8
:10465000FFF793F810BD70B5446A2068406994F87C
:104660004110C0F3C0100025212904D118B1E58400
:10467000204600F08EF82068406994F84210C0F39C
:104680008010222904D118B1E585204600F05AF89F
:10469000606C40F0100060642046FFF76EF870BD5B
:1046A00010B50146406A096809684FF000028906A2
:1046B0002ED4C28501680C3151E8003F23F4807389
:1046C00041E80034002CF5D10168143151E8003F75
:1046D00023F0010341E80034002CF5D101681431C6
:1046E00051E8003F23F0400341E80034002CF5D1AD
:1046F000202180F84210016B012909D101680C3199
:1047000051E8003F23F0100341E80034002CF5D1BC
:104710004263016B012902D0FFF74CFA10BD818D75
:10472000FEF7F2FF10BD10B5406A01214163016B35
:10473000012902D0FFF778FA10BD818D4908FEF7F4
:10474000E3FF10BD01680C3151E8002F22F4907294
:1047500041E80023002BF5D10168143151E8002F06
:1047600022F0010241E80023002BF5D1016B012961
:1047700009D101680C3151E8002F22F0100241E804
:104780000023002BF5D1202180F842100021016385
:10479000704701680C3151E8002F22F0C00241E857
:1047A0000023002BF5D1202180F84110704708B577
:1047B00090F84210222901D0022008BD82684FF4EF
:1047C00080539A4201D1016921B1816A9A421BD07A
:1047D0004AB10AE00268816A5268C2F308020A809C
:1047E000816A891C08E0026972B10268526802F0AD
:1047F0007F020A70816A491C8162C18D491E0904C9
:10480000090CC18503D01BE002685268F1E701681A
:10481000CA6822F02002CA600168CA6822F4807265
:10482000CA6001684A6922F001024A61202180F8C9
:10483000421000214163026B012A03D0FFF7BAF94D
:10484000002008BD016301680C3151E8002F22F0FF
:10485000100241E80023002BF5D101680A68D20656
:1048600002D50A6849680091818DFEF74DFFE7E7A0
:1048700070B5044600680169E26821F440511143B3
:1048800001612169A0680843616908432168CA6819
:1048900041F20C639A430243CA6020684169A269ED
:1048A00021F44071114341611E492068884202D1C0
:1048B000FEF750FD01E0FEF73DFD00EBC00101EB0E
:1048C0000012606864218000B2FBF0F3B3FBF1F3E7
:1048D0006FF018067343B2FBF0F5B2FBF0F605EB90
:1048E0008305322303EB0515B5FBF1F5B6FBF1F6B5
:1048F00005F0F00505EB0615B2FBF0F6B2FBF0F0A3
:10490000B0FBF1F06FF01802504306EB800003EBB0
:104910000010B0FBF1F0216800F00F00284488601F
:1049200070BD00000038014038B5816204468285C0
:10493000002013466064222284F84220E56B1B4A63
:10494000AA62E56B1A4AEA62E56B1A4A2A63E26BCD
:1049500050630A462168E06B091DFEF7D3F8206812
:10496000016840680090206948B120680C3050E828
:10497000001F41F4807140E80012002AF5D1206840
:10498000143050E8001F41F0010140E80012002AF5
:10499000F5D12068143050E8001F41F0400140E894
:1049A0000012002AF5D1002038BD0000A146000801
:1049B000274700085746000881628285C28500218A
:1049C0004164222180F84210016921B10168CA685E
:1049D00042F48072CA6001684A6942F001024A6189
:1049E0000068C16841F02001C160002070472DE9D6
:1049F000F843984617460D460446089E24E0701C6E
:104A000022D0FEF795FAA0EB0800B0421AD8CEB13A
:104A10002068C168490717D5802D15D0402D13D0C7
:104A20000168C94309070FD4016800254068009058
:104A30002046FFF787FE0820606484F8405001207C
:104A4000BDE8F8830320FBE72068006835EA000032
:104A500004D00020B842D2D00020F1E70120F9E7CD
:104A600038B5124C20680168C9061AD501680025BE
:104A7000406800902046FEF748FEE06B0068406802
:104A800040F2FF12A0F2FF10404280B2B0F5007F6A
:104A900000D310460649088006490D540348FFF725
:104AA0006DF8BDE838400148FEF768BE58000020A8
:104AB0001E000020300600200148FEF75FBE000007
:104AC000A0000020FEE7490050EAC12018BF0420E2
:104AD0004A0D18BF40F0010040F2FF72B2EB515F87
:104AE00008BF40F00200012808BF052070470907F1
:104AF000090E002804DB00F1E02080F80014704764
:104B000000F00F0000F1E02080F8141D70473038ED
:104B10000A2801D201207047002070470024FEF7C8
:104B200015FAFFF753FDFFF7E7F9FFF7C7F9FFF7AE
:104B300069FAFFF79BF9FFF745FAFFF7ADFAFCF7C3
:104B400029FEFFF7DDFCFDF70BF94FF47A7506E05F
:104B5000641CE4B22846FEF70DF8052C03D2FDF7DD
:104B600087F80028F4D0FCF731FF90B141F288308B
:104B7000FEF700F8FCF71CFFFFF762FA01210DA019
:104B8000FDF764FA30B1002116A0FDF75FFA10B10D
:104B900002E0FEE7FEE7FEE7FFF7CCFBFFF728FCAD
:104BA00028B100F0CBF82846FDF7E4FFF4E700F069
:104BB0002DF8F8E7247379732F6455356A566731F9
:104BC0004C39622F746573742F7468696E672F7027
:104BD000726F70657274792F706F73742F72657055
:104BE0006C790000247379732F6455356A566731E8
:104BF0004C39622F746573742F7468696E672F70F7
:104C0000726F70657274792F7365740030B5A7B0D8
:104C100001A8FCF75BFE0124002833D19DF8073082
:104C20009DF8062031A107A8FBF7F8FA9DF805309A
:104C30009DF8042031A10FA8FBF7F0FA002108230A
:104C400007AA08460094FFF73BFB08230FAA194662
:104C500000200094FFF734FB9DF807309DF80620F4
:104C60002BA103A8FBF7DAFA03A8FFF7F5F89DF8E4
:104C700005309DF8042026A103A8FBF7CFFA03A86E
:104C8000FFF7DAF8FCF780FD00F016F902460B4654
:104C900021A117A8FBF7C2FA082317AA10210020A8
:104CA0000094FFF70DFB20A103A8FBF7B7FA03A8B8
:104CB000FFF7BCF8FCF7E6FC054602461CA11FA85E
:104CC000FBF7ACFA08231FAA182100200094FFF775
:104CD000F7FAFFF74FFA2A4617A103A8FBF79EFA47
:104CE00003A8FFF7B3F827B030BD000054656D701E
:104CF0003A2025642E2564430000000048756D6944
:104D0000646974793A2025642E2564252500000005
:104D100025642E2564000000434F323A20252E33AF
:104D200066206D672F6D330032312E310000000098
:104D30004D51353A202575002575000070B58AB0B3
:104D4000FFF7DAFB0646FFF753FB05460124002177
:104D5000082331A208460094FFF7B2FAB6F90430EE
:104D6000012D4ED031A232A102A8FBF757FA082339
:104D700002AA194600200094FFF7A2FAF388022D38
:104D800041D02AA22EA102A8FBF748FA082302AAC2
:104D9000102100200094FFF793FAB06800F08CF81F
:104DA000032DCDE9000130D020A22AA102A8FBF7F3
:104DB00035FA082302AA182100200094FFF780FA90
:104DC000B389042D23D019A225A102A8FBF726FA46
:104DD000082302AA202100200094FFF771FA052D74
:104DE00017D012A221A102A8FBF718FA082302AAE1
:104DF000282100200094FFF763FAFFF7BBF90AB0FF
:104E000070BD1EA2AFE71DA2BCE71CA2CDE71BA28E
:104E1000DAE71AA2E6E700003D3D205365747469A5
:104E20006E67204D6F6465203D3D0000200000004E
:104E3000257354656D702054483A20256443000062
:104E4000257348756D69646974793A202564252550
:104E5000000000002573434F323A20252E306600B3
:104E600025734D51353A202575000000257345788E
:104E70006974202620536176650000003E00000022
:104E800010B500290AD00878002807D005487844D2
:104E9000FBF712FC002801D0002010BD0248784426
:104EA00010BD00005A1F0000521F00000808A0F5A6
:104EB00000114FEA3101704743004FEAD30C4FEA2B
:104EC0003C0C43401FBF40070CF1605113F0FE4FF4
:104ED00070471CF0006F03D100200CF000417047B8
:104EE0000CF0004343EA507010B540EACC0000F0EB
:104EF00006F900BF000000924FEA0001FFF7D6BF9D
:104F00004FF000414FF00000A1F500217047000074
:104F100090EA010F48BF81F0004100F14281421A3E
:104F20003CBF801A89184FEAD0524FF07F4C1CEAE0
:104F3000410FA2EBD15318BF9CEA026F00F03B80F7
:104F40004FF0004C4CEA00204CEA012121FA03FC0E
:104F500010EB0C0C1ED202F1FF325FEA1C2040EB7A
:104F6000C25038BF70471CF07F0F4FEA400C18BF8B
:104F7000BCF17F4F38BF7047C3F12003994008BF91
:104F800020F00100BCF17F4F38BF7047A0F1C04056
:104F900000F0FBB84FEA3C00000A40EBC25028BFCB
:104FA0001CF0FF0F4FEA400CE6D018BFBCF17F4F5A
:104FB00038BF7047EAE79CEA026F05D010EA5C0F41
:104FC00008BF00F00040704710B500F098F800BF2F
:104FD00064FBBE3EB0FA80F310FA03F2C3F19D0306
:104FE0000AD0D90501EB1220530638BF704700F1F3
:104FF000010008BF20F00100704700004FF47F0C53
:105000001CEAD0121EBF1CEAD11392EA0C0F93EADD
:105010000C0F00F0478090EA010F48BF42F4807205
:105020004FF0004C4CEA00204CEA012102EB030255
:10503000A0FB0113A2F50002002918BF43F00103F1
:105040005B0028BF4FEA330342EB22425FEA132C96
:105050004CEBC2502EBFBCEB436FB2F57C0F7047D8
:105060004FEA036CBCF1004F08BF20F00100B2F51D
:105070007C0F38BF70470BD582F0FF0212F5803FDE
:10508000C8BF704700F1C040D8BF00F00040704773
:1050900000F5000C5FEA4C0C48BF7047B0F1C0400F
:1050A00000F073B890EA010F0CEAD11348BF42F444
:1050B0008072624538BF634504D280EA010000F087
:1050C0000040704710B500F01AF800BF8900013E9B
:1050D00000F007B800F009B85FEA410C5FEA1C6C09
:1050E00008D080EA010000F050B85FEA400C5FEAA7
:1050F0001C6CF6D14FF00040A0F5800070470EF117
:10510000020E2EF0030E5EF8044B244204D44FEA44
:105110004102B2F17F4F11D84FEA4003B3F17F4F04
:105120000CD80ED14FEAD07CB2F17F4F0CEB4C0C77
:105130000CF1020C08BF4CEBD17C04E04FF0080CE2
:1051400001E04FEAD17C0CEB4C0324FA03F404F0A9
:105150000704B4F1040C06D20EEB840CBDE8104039
:105160004CF0010C6047DFE80CF0070802024FF03A
:105170000040A0F5800010BD0846420018BFD2F1E3
:10518000807288BF00F0004010BDFF2141EAD0507E
:10519000C005704790EA010F48BF81F000413FF51C
:1051A000BEAE421A04D882F00042A0EB02001144C5
:1051B0004FEAD0524FF07F4C1CEA410FA2EBD15383
:1051C00018BF9CEA026F4AD04FF0004C4CEA002016
:1051D0004CEA012121FA03FCB0EB0C0C0FD412F0C5
:1051E000FE0F36D05FEA4C001DD5001240EBC250D6
:1051F00038BF70471CF03F0F18BF70470BE0A2F19B
:1052000001025FEA1C2040EBC25038BF70471CF01F
:105210007F0F18BF7047C3F12003994014BF401E91
:1052200020F00100704780084FEA122308BF704742
:10523000B0FA80FCA2EB0C02CCF1280C60FA0CF066
:1052400093EA122F04BF00EBC25070474FEAC370BD
:105250007047130A5FEADC1008BF7047F6E79CEA64
:10526000026F04D010EA5C0F08BF0020704710B531
:10527000FFF745FF40DFF63E81F000407047FBF747
:1052800090BB010202030405060708090A0B0C0D76
:105290000E0F1010010202030405060708090A0B8D
:1052A0000C0D0E0F101000000000000000000102A5
:1052B00003040607080900000000010203040000BF
:1052C000000000000000002F0000000007000700A1
:1052D00000147F147F1400242A7F2A1200626408BD
:1052E000132300364955225000000503000000003A
:1052F0001C224100000041221C000014083E08143A
:105300000008083E0808000000A060000008080827
:105310000808000060600000002010080402003E41
:105320005149453E0000427F4000004261514946DC
:10533000002141454B31001814127F1000274545CC
:105340004539003C4A4949300001710905030036DE
:105350004949493600064949291E000036360000F1
:1053600000005636000000081422410000141414F6
:1053700014140000412214080002015109060032F1
:105380004959513E007C1211127C007F494949362F
:10539000003E41414122007F4141221C007F49499A
:1053A0004941007F09090901003E4149497A007FCE
:1053B0000808087F0000417F4100002040413F0174
:1053C000007F08142241007F40404040007F020CD3
:1053D000027F007F0408107F003E4141413E007F74
:1053E00009090906003E4151215E007F091929463D
:1053F0000046494949310001017F0101003F404019
:10540000403F001F2040201F003F4038403F0063C6
:1054100014081463000708700807006151494543E8
:1054200000007F41410000552A552A5500004141A6
:105430007F000004020102040040404040400000A0
:1054400001020400002054545478007F484444383A
:1054500000384444442000384444487F00385454C1
:10546000541800087E0901020018A4A4A47C007F3F
:10547000080404780000447D4000004080847D00E2
:10548000007F102844000000417F4000007C041889
:105490000478007C0804047800384444443800FC54
:1054A000242424180018242418FC007C0804040870
:1054B00000485454542000043F444020003C4040E5
:1054C000207C001C2040201C003C4030403C00441C
:1054D00028102844001CA0A0A07C004464544C4424
:1054E0001414141414140000000000000000000044
:1054F00000000000FC000000000002000000000CA2
:10550000020C020000000000000090D0BCD0BC9053
:105510000003000300001824FE448C00030207026D
:1055200001001824D8B04C80000300010201C038EB
:10553000E438E00001020201020208060000000057
:10554000000000000000000000F80402000000015C
:105550000204000204F80000000402010000906050
:10556000F86090000000010000002020FC202000D6
:10557000000001000000000000000000080600001C
:10558000000020202020200000000000000000007B
:10559000000000000002000000000080601C02000B
:1055A000040300000000F8040404F80001020202F1
:1055B00001000008FC000000000203020000188443
:1055C0004424180003020202020008042424D80024
:1055D00001020202010040B088FC800000000003CC
:1055E00002003C242424C400010202020100F82429
:1055F000242CC0000102020201000C04E41C04007F
:10560000000003000000D8242424D8000102020274
:10561000010038444444F800000302020100000085
:105620001000000000000200000000002000000048
:105630000000060000000020508804020000000066
:105640000102909090909000000000000000000285
:10565000048850200002010000001804C42418002F
:10566000000002000000F804E494F80001020202C5
:10567000020000E09CF0800002030000030204FC32
:105680002424D800020302020100F80404040C00E0
:1056900001020202010004FC0404F80002030202F9
:1056A000010004FC24740C0002030202030004FC49
:1056B00024740C00020302000000F0080444CC40F3
:1056C00000010202010004FC2020FC04020300008F
:1056D00003020404FC0404000202030202000004AA
:1056E00004FC040406040403000004FC24D00C049D
:1056F00002030200030204FC040000000203020291
:105700000203FC3CC03CFC0003000300030004FC5B
:1057100030C4FC04020302000300F8040404F8008F
:1057200001020202010004FC24241800020302000A
:105730000000F8848404F80001020207050004FC5C
:1057400024649800020302000302182424448C00FD
:105750000302020201000C04FC040C00000203021C
:10576000000004FC0000FC04000102020100047CB3
:1057700080E01C040000030000001CE03CE01C0072
:10578000000300030000049C609C0400020300036B
:105790000200041CE01C04000002030200000C8450
:1057A000641C04000203020203000000FE02020067
:1057B000000007040400000E30C0000000000001DB
:1057C0000200000202FE00000004040700000004C2
:1057D00002040000000000000000000000000000C3
:1057E0000808080808080000020000000000000087
:1057F00000000040A0A0C00000010202030204FC5F
:105800002020C00000030202010000C02020600030
:1058100000010202020000C02024FC00000102027C
:10582000030200C0A0A0C00000010202020000208C
:10583000F82424040002030202000040A0A060201B
:1058400000070A0A0A0404FC2020C0000203020028
:1058500003020020E4000000000203020000000038
:1058600020E4000008080807000004FC80E0202075
:105870000203020003020404FC000000020203020F
:105880000200E020E020C00003000300030020E04D
:105890002020C00002030200030200C02020C0003C
:1058A00000010202010020E02020C000080F0A02CF
:1058B000010000C02020E0000001020A0F0820E0E3
:1058C000402020000203020000000060A0A0200091
:1058D0000002020203000020F82000000000010284
:1058E000020020E00020E00000010202030220E0AC
:1058F000208060200000030100006080E0806000E4
:105900000003000300002060806020000203000309
:10591000020020E02080602008080701000000202D
:10592000A0602000000203020200000020DE02004E
:10593000000000070400000000FF00000000000F4E
:1059400000000002DE200000000407000000020149
:10595000020404020000000000000000000000003B
:1059600000000000000000000000000000F800003F
:105970000000000000333000000000100C06100C86
:105980000600000000000000000040C07840C07821
:105990004000043F04043F040400007088FC083009
:1059A0000000001820FF211E0000F008F000E018A1
:1059B000000000211C031E211E0000F0088870005A
:1059C00000001E2123241927211010160E000000AC
:1059D00000000000000000000000000000E01804CB
:1059E0000200000000071820400000020418E00038
:1059F00000000040201807000000404080F0804078
:105A000040000202010F01020200000000F000004D
:105A100000000101011F0101010000000000000061
:105A2000000080B0700000000000000000000000D6
:105A3000000000010101010101010000000000005F
:105A40000000003030000000000000000000806016
:105A50001804006018060100000000E0100808109B
:105A6000E000000F102020100F00001010F80000C0
:105A700000000020203F2020000000700808088857
:105A80007000003028242221300000300888884827
:105A900030000018202020110E000000C02010F857
:105AA000000000070424243F240000F80888880828
:105AB00008000019212020110E0000E0108888182D
:105AC0000000000F112020110E0000380808C8380F
:105AD00008000000003F00000000007088080888EF
